{
  "_format": "hh-sol-artifact-1",
  "contractName": "TOK",
  "sourceName": "contracts/TOK.sol",
  "abi": [
    {
      "inputs": [],
      "stateMutability": "nonpayable",
      "type": "constructor"
    },
    {
      "anonymous": false,
      "inputs": [
        {
          "indexed": true,
          "internalType": "address",
          "name": "tokenAddress",
          "type": "address"
        },
        {
          "indexed": true,
          "internalType": "uint256",
          "name": "orderId",
          "type": "uint256"
        }
      ],
      "name": "CancelOrderByOwnerEvent",
      "type": "event"
    },
    {
      "anonymous": false,
      "inputs": [
        {
          "indexed": true,
          "internalType": "address",
          "name": "tokenAddress",
          "type": "address"
        },
        {
          "indexed": true,
          "internalType": "uint256",
          "name": "orderId",
          "type": "uint256"
        }
      ],
      "name": "CancelOrderByTokenOwnerEvent",
      "type": "event"
    },
    {
      "anonymous": false,
      "inputs": [
        {
          "indexed": true,
          "internalType": "address",
          "name": "tokenAddress",
          "type": "address"
        },
        {
          "indexed": true,
          "internalType": "uint256",
          "name": "pricePerToken",
          "type": "uint256"
        },
        {
          "indexed": true,
          "internalType": "uint256",
          "name": "totalOrderAmount",
          "type": "uint256"
        }
      ],
      "name": "ChangeOrderByOwnerEvent",
      "type": "event"
    },
    {
      "anonymous": false,
      "inputs": [
        {
          "indexed": true,
          "internalType": "uint256",
          "name": "orderId",
          "type": "uint256"
        },
        {
          "indexed": true,
          "internalType": "address",
          "name": "clientAddress",
          "type": "address"
        },
        {
          "indexed": true,
          "internalType": "uint256",
          "name": "depositTokenAmount",
          "type": "uint256"
        }
      ],
      "name": "DepositEquityTokenEvent",
      "type": "event"
    },
    {
      "anonymous": false,
      "inputs": [
        {
          "indexed": false,
          "internalType": "uint8",
          "name": "version",
          "type": "uint8"
        }
      ],
      "name": "Initialized",
      "type": "event"
    },
    {
      "anonymous": false,
      "inputs": [
        {
          "indexed": true,
          "internalType": "uint256",
          "name": "orderId",
          "type": "uint256"
        }
      ],
      "name": "LockTransactionEvent",
      "type": "event"
    },
    {
      "anonymous": false,
      "inputs": [
        {
          "indexed": true,
          "internalType": "uint256",
          "name": "orderId",
          "type": "uint256"
        },
        {
          "indexed": true,
          "internalType": "uint256",
          "name": "totalOrderAmount",
          "type": "uint256"
        },
        {
          "indexed": true,
          "internalType": "address",
          "name": "tokenAddress",
          "type": "address"
        },
        {
          "indexed": false,
          "internalType": "uint256",
          "name": "tokenAmount",
          "type": "uint256"
        }
      ],
      "name": "NewOrderEvent",
      "type": "event"
    },
    {
      "anonymous": false,
      "inputs": [
        {
          "indexed": true,
          "internalType": "address",
          "name": "previousOwner",
          "type": "address"
        },
        {
          "indexed": true,
          "internalType": "address",
          "name": "newOwner",
          "type": "address"
        }
      ],
      "name": "OwnershipTransferred",
      "type": "event"
    },
    {
      "anonymous": false,
      "inputs": [
        {
          "indexed": false,
          "internalType": "address",
          "name": "account",
          "type": "address"
        }
      ],
      "name": "Paused",
      "type": "event"
    },
    {
      "anonymous": false,
      "inputs": [
        {
          "indexed": true,
          "internalType": "address",
          "name": "tokenAddress",
          "type": "address"
        },
        {
          "indexed": true,
          "internalType": "uint256",
          "name": "orderId",
          "type": "uint256"
        }
      ],
      "name": "RunCancelOrderByOwnerEvent",
      "type": "event"
    },
    {
      "anonymous": false,
      "inputs": [
        {
          "indexed": true,
          "internalType": "address",
          "name": "tokenAddress",
          "type": "address"
        },
        {
          "indexed": true,
          "internalType": "uint256",
          "name": "orderId",
          "type": "uint256"
        }
      ],
      "name": "RunCancelOrderByTokenOwnerEvent",
      "type": "event"
    },
    {
      "anonymous": false,
      "inputs": [
        {
          "indexed": true,
          "internalType": "uint256",
          "name": "orderId",
          "type": "uint256"
        }
      ],
      "name": "RunChangeOrderByOwnerEvent",
      "type": "event"
    },
    {
      "anonymous": false,
      "inputs": [
        {
          "indexed": true,
          "internalType": "address",
          "name": "tokenAddress",
          "type": "address"
        },
        {
          "indexed": true,
          "internalType": "uint256",
          "name": "orderId",
          "type": "uint256"
        },
        {
          "indexed": true,
          "internalType": "uint256",
          "name": "mode",
          "type": "uint256"
        }
      ],
      "name": "RunModifyOrderByPpraEvent",
      "type": "event"
    },
    {
      "anonymous": false,
      "inputs": [
        {
          "indexed": false,
          "internalType": "address",
          "name": "tokenAddress",
          "type": "address"
        },
        {
          "indexed": true,
          "internalType": "uint256",
          "name": "orderId",
          "type": "uint256"
        },
        {
          "indexed": true,
          "internalType": "address",
          "name": "tokenOwner",
          "type": "address"
        },
        {
          "indexed": true,
          "internalType": "address",
          "name": "newOwner",
          "type": "address"
        },
        {
          "indexed": false,
          "internalType": "bool",
          "name": "ppraFee",
          "type": "bool"
        },
        {
          "indexed": false,
          "internalType": "uint256",
          "name": "totalOrderAmount",
          "type": "uint256"
        },
        {
          "indexed": false,
          "internalType": "uint256",
          "name": "fee",
          "type": "uint256"
        }
      ],
      "name": "TransactEvent",
      "type": "event"
    },
    {
      "anonymous": false,
      "inputs": [
        {
          "indexed": false,
          "internalType": "address",
          "name": "account",
          "type": "address"
        }
      ],
      "name": "Unpaused",
      "type": "event"
    },
    {
      "inputs": [
        {
          "internalType": "uint256",
          "name": "_orderId",
          "type": "uint256"
        }
      ],
      "name": "cancelOrderByOwner",
      "outputs": [],
      "stateMutability": "nonpayable",
      "type": "function"
    },
    {
      "inputs": [
        {
          "internalType": "uint256",
          "name": "_orderId",
          "type": "uint256"
        }
      ],
      "name": "cancelOrderByTokenOwner",
      "outputs": [],
      "stateMutability": "nonpayable",
      "type": "function"
    },
    {
      "inputs": [
        {
          "internalType": "contract IERC20Upgradeable",
          "name": "_coinAddress",
          "type": "address"
        }
      ],
      "name": "changeCoinTokenAddress",
      "outputs": [],
      "stateMutability": "nonpayable",
      "type": "function"
    },
    {
      "inputs": [
        {
          "internalType": "uint256",
          "name": "_orderId",
          "type": "uint256"
        },
        {
          "internalType": "address",
          "name": "_tokenAddress",
          "type": "address"
        }
      ],
      "name": "changeOrderByOwner",
      "outputs": [],
      "stateMutability": "nonpayable",
      "type": "function"
    },
    {
      "inputs": [
        {
          "internalType": "uint256",
          "name": "_price",
          "type": "uint256"
        },
        {
          "internalType": "address",
          "name": "_tokenAddress",
          "type": "address"
        },
        {
          "internalType": "uint256",
          "name": "_tokenAmount",
          "type": "uint256"
        }
      ],
      "name": "createOrder",
      "outputs": [],
      "stateMutability": "nonpayable",
      "type": "function"
    },
    {
      "inputs": [
        {
          "internalType": "uint256",
          "name": "_orderId",
          "type": "uint256"
        },
        {
          "internalType": "uint256",
          "name": "_amount",
          "type": "uint256"
        }
      ],
      "name": "depositEquityToken",
      "outputs": [],
      "stateMutability": "nonpayable",
      "type": "function"
    },
    {
      "inputs": [
        {
          "internalType": "address",
          "name": "ownerAddress",
          "type": "address"
        }
      ],
      "name": "getEquityTokenOwnerShipAmount",
      "outputs": [
        {
          "internalType": "uint256",
          "name": "",
          "type": "uint256"
        }
      ],
      "stateMutability": "view",
      "type": "function"
    },
    {
      "inputs": [
        {
          "internalType": "uint256",
          "name": "orderId",
          "type": "uint256"
        }
      ],
      "name": "getOrderOwner",
      "outputs": [
        {
          "internalType": "address",
          "name": "",
          "type": "address"
        }
      ],
      "stateMutability": "view",
      "type": "function"
    },
    {
      "inputs": [
        {
          "internalType": "uint256",
          "name": "_orderId",
          "type": "uint256"
        }
      ],
      "name": "getOrders",
      "outputs": [
        {
          "internalType": "uint256",
          "name": "price",
          "type": "uint256"
        },
        {
          "internalType": "address",
          "name": "tokenAddress",
          "type": "address"
        },
        {
          "internalType": "enum TOK.State",
          "name": "currentState",
          "type": "uint8"
        },
        {
          "internalType": "uint256",
          "name": "amount",
          "type": "uint256"
        },
        {
          "internalType": "bool",
          "name": "ppraFee",
          "type": "bool"
        },
        {
          "internalType": "address",
          "name": "equityTokenOwner",
          "type": "address"
        },
        {
          "internalType": "uint256",
          "name": "equityTokenAmount",
          "type": "uint256"
        }
      ],
      "stateMutability": "view",
      "type": "function"
    },
    {
      "inputs": [
        {
          "internalType": "address",
          "name": "ownerAddress",
          "type": "address"
        }
      ],
      "name": "getStableCoinBalance",
      "outputs": [
        {
          "internalType": "uint256",
          "name": "",
          "type": "uint256"
        }
      ],
      "stateMutability": "view",
      "type": "function"
    },
    {
      "inputs": [
        {
          "internalType": "contract IERC20Upgradeable",
          "name": "_coinAddress",
          "type": "address"
        },
        {
          "internalType": "contract IVault",
          "name": "_coinVault",
          "type": "address"
        }
      ],
      "name": "initialize",
      "outputs": [],
      "stateMutability": "nonpayable",
      "type": "function"
    },
    {
      "inputs": [
        {
          "internalType": "uint256",
          "name": "_orderId",
          "type": "uint256"
        },
        {
          "internalType": "bool",
          "name": "_ppraFee",
          "type": "bool"
        }
      ],
      "name": "lockTransaction",
      "outputs": [],
      "stateMutability": "nonpayable",
      "type": "function"
    },
    {
      "inputs": [],
      "name": "owner",
      "outputs": [
        {
          "internalType": "address",
          "name": "",
          "type": "address"
        }
      ],
      "stateMutability": "view",
      "type": "function"
    },
    {
      "inputs": [],
      "name": "pause",
      "outputs": [],
      "stateMutability": "nonpayable",
      "type": "function"
    },
    {
      "inputs": [],
      "name": "paused",
      "outputs": [
        {
          "internalType": "bool",
          "name": "",
          "type": "bool"
        }
      ],
      "stateMutability": "view",
      "type": "function"
    },
    {
      "inputs": [],
      "name": "renounceOwnership",
      "outputs": [],
      "stateMutability": "nonpayable",
      "type": "function"
    },
    {
      "inputs": [
        {
          "internalType": "uint256",
          "name": "_orderId",
          "type": "uint256"
        }
      ],
      "name": "runCancelOrderByOwner",
      "outputs": [],
      "stateMutability": "nonpayable",
      "type": "function"
    },
    {
      "inputs": [
        {
          "internalType": "uint256",
          "name": "_orderId",
          "type": "uint256"
        }
      ],
      "name": "runCancelOrderByTokenOwner",
      "outputs": [],
      "stateMutability": "nonpayable",
      "type": "function"
    },
    {
      "inputs": [
        {
          "internalType": "uint256",
          "name": "_orderId",
          "type": "uint256"
        }
      ],
      "name": "runChangeOrderByOwner",
      "outputs": [],
      "stateMutability": "nonpayable",
      "type": "function"
    },
    {
      "inputs": [
        {
          "internalType": "uint256",
          "name": "_orderId",
          "type": "uint256"
        },
        {
          "internalType": "uint256",
          "name": "_mode",
          "type": "uint256"
        }
      ],
      "name": "runModifyOrderByPpra",
      "outputs": [],
      "stateMutability": "nonpayable",
      "type": "function"
    },
    {
      "inputs": [],
      "name": "totalFee",
      "outputs": [
        {
          "internalType": "uint256",
          "name": "",
          "type": "uint256"
        }
      ],
      "stateMutability": "view",
      "type": "function"
    },
    {
      "inputs": [
        {
          "internalType": "uint256",
          "name": "_orderId",
          "type": "uint256"
        }
      ],
      "name": "transact",
      "outputs": [],
      "stateMutability": "nonpayable",
      "type": "function"
    },
    {
      "inputs": [
        {
          "internalType": "address",
          "name": "newOwner",
          "type": "address"
        }
      ],
      "name": "transferOwnership",
      "outputs": [],
      "stateMutability": "nonpayable",
      "type": "function"
    },
    {
      "inputs": [],
      "name": "unpause",
      "outputs": [],
      "stateMutability": "nonpayable",
      "type": "function"
    }
  ],
  "bytecode": "0x60806040523480156200001157600080fd5b50620000226200002860201b60201c565b620001d2565b600060019054906101000a900460ff16156200007b576040517f08c379a0000000000000000000000000000000000000000000000000000000008152600401620000729062000175565b60405180910390fd5b60ff801660008054906101000a900460ff1660ff1614620000ec5760ff6000806101000a81548160ff021916908360ff1602179055507f7f26b83ff96e1f2b6a682f133852f6798a09c465da95921460cefb384740249860ff604051620000e39190620001b5565b60405180910390a15b565b600082825260208201905092915050565b7f496e697469616c697a61626c653a20636f6e747261637420697320696e69746960008201527f616c697a696e6700000000000000000000000000000000000000000000000000602082015250565b60006200015d602783620000ee565b91506200016a82620000ff565b604082019050919050565b6000602082019050818103600083015262000190816200014e565b9050919050565b600060ff82169050919050565b620001af8162000197565b82525050565b6000602082019050620001cc6000830184620001a4565b92915050565b61521680620001e26000396000f3fe608060405234801561001057600080fd5b50600436106101585760003560e01c80637fc0031f116100c3578063a83a57271161007c578063a83a572714610353578063c0f162ea1461036f578063e2b91afb1461039f578063e5f61e80146103bb578063f2fde38b146103d7578063f96d947d146103f357610158565b80637fc0031f146102a75780638456cb59146102c35780638cf53d97146102cd5780638da5cb5b146102fd57806390152c791461031b578063940e97e01461033757610158565b8063549329aa11610115578063549329aa1461020f5780635c975abb1461022b578063650b760914610249578063715018a6146102655780637c93d9f21461026f5780637d6d38061461028b57610158565b806305e0141d1461015d5780631df4ccfc146101935780633f4ba83a146101b1578063415e35f3146101bb578063485cc955146101d75780634f7cb698146101f3575b600080fd5b61017760048036038101906101729190613e72565b610423565b60405161018a9796959493929190613f81565b60405180910390f35b61019b6105ab565b6040516101a89190613ff0565b60405180910390f35b6101b96105b1565b005b6101d560048036038101906101d09190613e72565b6105c3565b005b6101f160048036038101906101ec9190614087565b610837565b005b61020d60048036038101906102089190613e72565b6109f9565b005b610229600480360381019061022491906140c7565b610a05565b005b610233610af2565b6040516102409190614107565b60405180910390f35b610263600480360381019061025e9190613e72565b610b09565b005b61026d611631565b005b61028960048036038101906102849190614122565b611645565b005b6102a560048036038101906102a09190613e72565b611691565b005b6102c160048036038101906102bc919061417b565b6117b4565b005b6102cb611915565b005b6102e760048036038101906102e29190613e72565b611927565b6040516102f491906141bb565b60405180910390f35b610305611964565b60405161031291906141bb565b60405180910390f35b61033560048036038101906103309190613e72565b61198e565b005b610351600480360381019061034c9190614202565b61199a565b005b61036d600480360381019061036891906140c7565b611cab565b005b61038960048036038101906103849190614242565b61201d565b6040516103969190613ff0565b60405180910390f35b6103b960048036038101906103b4919061426f565b612066565b005b6103d560048036038101906103d09190613e72565b61239c565b005b6103f160048036038101906103ec9190614242565b6125fe565b005b61040d60048036038101906104089190614242565b612681565b60405161041a9190613ff0565b60405180910390f35b600080600080600080600060998881548110610442576104416142c2565b5b90600052602060002090600602016000015460998981548110610468576104676142c2565b5b906000526020600020906006020160010160009054906101000a900473ffffffffffffffffffffffffffffffffffffffff1660998a815481106104ae576104ad6142c2565b5b906000526020600020906006020160030160009054906101000a900460ff1660998b815481106104e1576104e06142c2565b5b90600052602060002090600602016002015460998c81548110610507576105066142c2565b5b906000526020600020906006020160030160019054906101000a900460ff1660998d8154811061053a576105396142c2565b5b906000526020600020906006020160030160029054906101000a900473ffffffffffffffffffffffffffffffffffffffff1660998e815481106105805761057f6142c2565b5b9060005260206000209060060201600401549650965096509650965096509650919395979092949650565b609e5481565b6105b96126ca565b6105c1612748565b565b80609981815481106105d8576105d76142c2565b5b906000526020600020906006020160030160029054906101000a900473ffffffffffffffffffffffffffffffffffffffff1673ffffffffffffffffffffffffffffffffffffffff163373ffffffffffffffffffffffffffffffffffffffff1614610677576040517f08c379a000000000000000000000000000000000000000000000000000000000815260040161066e9061434e565b60405180910390fd5b81600180600881111561068d5761068c613eef565b5b609983815481106106a1576106a06142c2565b5b906000526020600020906006020160030160009054906101000a900460ff1660088111156106d2576106d1613eef565b5b14610712576040517f08c379a0000000000000000000000000000000000000000000000000000000008152600401610709906143ba565b60405180910390fd5b61071a610af2565b1561075a576040517f08c379a000000000000000000000000000000000000000000000000000000000815260040161075190614426565b60405180910390fd5b6007609985815481106107705761076f6142c2565b5b906000526020600020906006020160030160006101000a81548160ff021916908360088111156107a3576107a2613eef565b5b021790555083609985815481106107bd576107bc6142c2565b5b906000526020600020906006020160010160009054906101000a900473ffffffffffffffffffffffffffffffffffffffff1673ffffffffffffffffffffffffffffffffffffffff167f924b09cad40fe29233b0398425528680b7697749c0fe23a3c21248d7064039e460405160405180910390a350505050565b60008060019054906101000a900460ff161590508080156108685750600160008054906101000a900460ff1660ff16105b806108955750610877306127ab565b1580156108945750600160008054906101000a900460ff1660ff16145b5b6108d4576040517f08c379a00000000000000000000000000000000000000000000000000000000081526004016108cb906144b8565b60405180910390fd5b60016000806101000a81548160ff021916908360ff1602179055508015610911576001600060016101000a81548160ff0219169083151502179055505b6109196127ce565b82609760006101000a81548173ffffffffffffffffffffffffffffffffffffffff021916908373ffffffffffffffffffffffffffffffffffffffff16021790555081609860006101000a81548173ffffffffffffffffffffffffffffffffffffffff021916908373ffffffffffffffffffffffffffffffffffffffff16021790555080156109f45760008060016101000a81548160ff0219169083151502179055507f7f26b83ff96e1f2b6a682f133852f6798a09c465da95921460cefb384740249860016040516109eb919061452a565b60405180910390a15b505050565b610a0281612827565b50565b610a0d6126ca565b60008103610a2c57610a1e82612cb3565b610a2782612e07565b610a64565b60018103610a4257610a3d82612cb3565b610a63565b60028103610a5857610a5382612e07565b610a62565b610a6182612efa565b5b5b5b808260998481548110610a7a57610a796142c2565b5b906000526020600020906006020160010160009054906101000a900473ffffffffffffffffffffffffffffffffffffffff1673ffffffffffffffffffffffffffffffffffffffff167fbe5ad8e52306e55e384465d754a5ebbebae9d09b78ca077e65477c74bb24ccec60405160405180910390a45050565b6000603360009054906101000a900460ff16905090565b806002806008811115610b1f57610b1e613eef565b5b60998381548110610b3357610b326142c2565b5b906000526020600020906006020160030160009054906101000a900460ff166008811115610b6457610b63613eef565b5b14610ba4576040517f08c379a0000000000000000000000000000000000000000000000000000000008152600401610b9b906143ba565b60405180910390fd5b6000609d600085815260200190815260200160002060009054906101000a900473ffffffffffffffffffffffffffffffffffffffff169050609860009054906101000a900473ffffffffffffffffffffffffffffffffffffffff1673ffffffffffffffffffffffffffffffffffffffff16632e1a7d4d609b60008473ffffffffffffffffffffffffffffffffffffffff1673ffffffffffffffffffffffffffffffffffffffff168152602001908152602001600020546040518263ffffffff1660e01b8152600401610c769190613ff0565b6020604051808303816000875af1158015610c95573d6000803e3d6000fd5b505050506040513d601f19601f82011682018060405250810190610cb9919061455a565b610cf8576040517f08c379a0000000000000000000000000000000000000000000000000000000008152600401610cef906145f9565b60405180910390fd5b60998481548110610d0c57610d0b6142c2565b5b906000526020600020906006020160000154609a60008373ffffffffffffffffffffffffffffffffffffffff1673ffffffffffffffffffffffffffffffffffffffff168152602001908152602001600020541015610d9f576040517f08c379a0000000000000000000000000000000000000000000000000000000008152600401610d969061468b565b60405180910390fd5b60998481548110610db357610db26142c2565b5b906000526020600020906006020160040154609c600060998781548110610ddd57610ddc6142c2565b5b906000526020600020906006020160030160029054906101000a900473ffffffffffffffffffffffffffffffffffffffff1673ffffffffffffffffffffffffffffffffffffffff1673ffffffffffffffffffffffffffffffffffffffff168152602001908152602001600020541015610e8b576040517f08c379a0000000000000000000000000000000000000000000000000000000008152600401610e829061471d565b60405180910390fd5b60998481548110610e9f57610e9e6142c2565b5b90600052602060002090600602016004015460998581548110610ec557610ec46142c2565b5b9060005260206000209060060201600201541015610f18576040517f08c379a0000000000000000000000000000000000000000000000000000000008152600401610f0f906147af565b60405180910390fd5b600060998581548110610f2e57610f2d6142c2565b5b90600052602060002090600602016000015460998681548110610f5457610f536142c2565b5b906000526020600020906006020160040154610f7091906147fe565b905080609a60008473ffffffffffffffffffffffffffffffffffffffff1673ffffffffffffffffffffffffffffffffffffffff16815260200190815260200160002054610fbd9190614840565b609a60008473ffffffffffffffffffffffffffffffffffffffff1673ffffffffffffffffffffffffffffffffffffffff1681526020019081526020016000208190555060998581548110611014576110136142c2565b5b906000526020600020906006020160040154609c60006099888154811061103e5761103d6142c2565b5b906000526020600020906006020160030160029054906101000a900473ffffffffffffffffffffffffffffffffffffffff1673ffffffffffffffffffffffffffffffffffffffff1673ffffffffffffffffffffffffffffffffffffffff168152602001908152602001600020546110b59190614840565b609c6000609988815481106110cd576110cc6142c2565b5b906000526020600020906006020160030160029054906101000a900473ffffffffffffffffffffffffffffffffffffffff1673ffffffffffffffffffffffffffffffffffffffff1673ffffffffffffffffffffffffffffffffffffffff1681526020019081526020016000208190555060008060998781548110611154576111536142c2565b5b906000526020600020906006020160030160019054906101000a900460ff16156111ba57600a60078461118791906147fe565b61119191906148a3565b9150818361119f9190614840565b905080609e546111af91906148d4565b609e819055506111be565b8291505b609987815481106111d2576111d16142c2565b5b906000526020600020906006020160040154609988815481106111f8576111f76142c2565b5b9060005260206000209060060201600201546112149190614840565b60998881548110611228576112276142c2565b5b906000526020600020906006020160020181905550600060998881548110611253576112526142c2565b5b906000526020600020906006020160020154036112bd576004609988815481106112805761127f6142c2565b5b906000526020600020906006020160030160006101000a81548160ff021916908360088111156112b3576112b2613eef565b5b02179055506113d9565b6000609988815481106112d3576112d26142c2565b5b906000526020600020906006020160030160006101000a81548160ff0219169083600881111561130657611305613eef565b5b0217905550600160998881548110611321576113206142c2565b5b906000526020600020906006020160030160016101000a81548160ff021916908315150217905550306099888154811061135e5761135d6142c2565b5b906000526020600020906006020160030160026101000a81548173ffffffffffffffffffffffffffffffffffffffff021916908373ffffffffffffffffffffffffffffffffffffffff1602179055506000609988815481106113c3576113c26142c2565b5b9060005260206000209060060201600401819055505b61146e84609989815481106113f1576113f06142c2565b5b90600052602060002090600602016004015460998a81548110611417576114166142c2565b5b906000526020600020906006020160010160009054906101000a900473ffffffffffffffffffffffffffffffffffffffff1673ffffffffffffffffffffffffffffffffffffffff16612fe89092919063ffffffff16565b61150060998881548110611485576114846142c2565b5b906000526020600020906006020160030160029054906101000a900473ffffffffffffffffffffffffffffffffffffffff1683609760009054906101000a900473ffffffffffffffffffffffffffffffffffffffff1673ffffffffffffffffffffffffffffffffffffffff16612fe89092919063ffffffff16565b8373ffffffffffffffffffffffffffffffffffffffff166099888154811061152b5761152a6142c2565b5b906000526020600020906006020160030160029054906101000a900473ffffffffffffffffffffffffffffffffffffffff1673ffffffffffffffffffffffffffffffffffffffff16887f5f5c431577ed12cf6c9f8ca1bc57a4fc0c860e246e4e515c09877f12a5452b7060998b815481106115a9576115a86142c2565b5b906000526020600020906006020160010160009054906101000a900473ffffffffffffffffffffffffffffffffffffffff1660998c815481106115ef576115ee6142c2565b5b906000526020600020906006020160030160019054906101000a900460ff1687876040516116209493929190614908565b60405180910390a450505050505050565b6116396126ca565b611643600061306e565b565b61164d6126ca565b80609760006101000a81548173ffffffffffffffffffffffffffffffffffffffff021916908373ffffffffffffffffffffffffffffffffffffffff16021790555050565b6116996126ca565b8060088060088111156116af576116ae613eef565b5b609983815481106116c3576116c26142c2565b5b906000526020600020906006020160030160009054906101000a900460ff1660088111156116f4576116f3613eef565b5b14611734576040517f08c379a000000000000000000000000000000000000000000000000000000000815260040161172b906143ba565b60405180910390fd5b60006099848154811061174a576117496142c2565b5b906000526020600020906006020160030160006101000a81548160ff0219169083600881111561177d5761177c613eef565b5b0217905550827f27f2ec90849bcebd24fd5ab94eb1f7c16b9ee3efd4864d7c63732d5f711025cf60405160405180910390a2505050565b6117bc6126ca565b8160018060088111156117d2576117d1613eef565b5b609983815481106117e6576117e56142c2565b5b906000526020600020906006020160030160009054906101000a900460ff16600881111561181757611816613eef565b5b14611857576040517f08c379a000000000000000000000000000000000000000000000000000000000815260040161184e906143ba565b60405180910390fd5b826099858154811061186c5761186b6142c2565b5b906000526020600020906006020160030160016101000a81548160ff0219169083151502179055506002609985815481106118aa576118a96142c2565b5b906000526020600020906006020160030160006101000a81548160ff021916908360088111156118dd576118dc613eef565b5b0217905550837f92470ef1e492929718490cda31533ba902afd3bed508a5cfac3b89a207b252bb60405160405180910390a250505050565b61191d6126ca565b611925613134565b565b6000609d600083815260200190815260200160002060009054906101000a900473ffffffffffffffffffffffffffffffffffffffff169050919050565b6000606560009054906101000a900473ffffffffffffffffffffffffffffffffffffffff16905090565b61199781613197565b50565b81609d600082815260200190815260200160002060009054906101000a900473ffffffffffffffffffffffffffffffffffffffff1673ffffffffffffffffffffffffffffffffffffffff163373ffffffffffffffffffffffffffffffffffffffff1614611a3c576040517f08c379a0000000000000000000000000000000000000000000000000000000008152600401611a3390614999565b60405180910390fd5b826000806008811115611a5257611a51613eef565b5b60998381548110611a6657611a656142c2565b5b906000526020600020906006020160030160009054906101000a900460ff166008811115611a9757611a96613eef565b5b14611ad7576040517f08c379a0000000000000000000000000000000000000000000000000000000008152600401611ace906143ba565b60405180910390fd5b611adf610af2565b15611b1f576040517f08c379a0000000000000000000000000000000000000000000000000000000008152600401611b1690614426565b60405180910390fd5b600860998681548110611b3557611b346142c2565b5b906000526020600020906006020160030160006101000a81548160ff02191690836008811115611b6857611b67613eef565b5b02179055508360998681548110611b8257611b816142c2565b5b906000526020600020906006020160010160006101000a81548173ffffffffffffffffffffffffffffffffffffffff021916908373ffffffffffffffffffffffffffffffffffffffff16021790555060998581548110611be557611be46142c2565b5b90600052602060002090600602016002015460998681548110611c0b57611c0a6142c2565b5b90600052602060002090600602016000015460998781548110611c3157611c306142c2565b5b906000526020600020906006020160010160009054906101000a900473ffffffffffffffffffffffffffffffffffffffff1673ffffffffffffffffffffffffffffffffffffffff167ef75f71b05f37891f4a7999d887ba6e23a1bfce3759d6c8cf3688c371778b1460405160405180910390a45050505050565b816000806008811115611cc157611cc0613eef565b5b60998381548110611cd557611cd46142c2565b5b906000526020600020906006020160030160009054906101000a900460ff166008811115611d0657611d05613eef565b5b14611d46576040517f08c379a0000000000000000000000000000000000000000000000000000000008152600401611d3d906143ba565b60405180910390fd5b611d4e610af2565b15611d8e576040517f08c379a0000000000000000000000000000000000000000000000000000000008152600401611d8590614426565b60405180910390fd5b8260998581548110611da357611da26142c2565b5b9060005260206000209060060201600201541015611df6576040517f08c379a0000000000000000000000000000000000000000000000000000000008152600401611ded90614a2b565b60405180910390fd5b82609c60003373ffffffffffffffffffffffffffffffffffffffff1673ffffffffffffffffffffffffffffffffffffffff16815260200190815260200160002054611e4191906148d4565b609c60003373ffffffffffffffffffffffffffffffffffffffff1673ffffffffffffffffffffffffffffffffffffffff16815260200190815260200160002081905550600160998581548110611e9a57611e996142c2565b5b906000526020600020906006020160030160006101000a81548160ff02191690836008811115611ecd57611ecc613eef565b5b02179055503360998581548110611ee757611ee66142c2565b5b906000526020600020906006020160030160026101000a81548173ffffffffffffffffffffffffffffffffffffffff021916908373ffffffffffffffffffffffffffffffffffffffff1602179055508260998581548110611f4b57611f4a6142c2565b5b906000526020600020906006020160040181905550611fd233308560998881548110611f7a57611f796142c2565b5b906000526020600020906006020160010160009054906101000a900473ffffffffffffffffffffffffffffffffffffffff1673ffffffffffffffffffffffffffffffffffffffff16613767909392919063ffffffff16565b823373ffffffffffffffffffffffffffffffffffffffff16857f6b24737f1e0657904a7ed4631efb80515523aeaffe3bb507e4dc181f24f11a4460405160405180910390a450505050565b6000609c60008373ffffffffffffffffffffffffffffffffffffffff1673ffffffffffffffffffffffffffffffffffffffff168152602001908152602001600020549050919050565b61206e610af2565b156120ae576040517f08c379a00000000000000000000000000000000000000000000000000000000081526004016120a590614426565b60405180910390fd5b60996040518061012001604052808581526020018473ffffffffffffffffffffffffffffffffffffffff168152602001838152602001600060088111156120f8576120f7613eef565b5b81526020016001151581526020013073ffffffffffffffffffffffffffffffffffffffff168152602001600081526020016000151581526020016000151581525090806001815401808255809150506001900390600052602060002090600602016000909190919091506000820151816000015560208201518160010160006101000a81548173ffffffffffffffffffffffffffffffffffffffff021916908373ffffffffffffffffffffffffffffffffffffffff1602179055506040820151816002015560608201518160030160006101000a81548160ff021916908360088111156121e8576121e7613eef565b5b021790555060808201518160030160016101000a81548160ff02191690831515021790555060a08201518160030160026101000a81548173ffffffffffffffffffffffffffffffffffffffff021916908373ffffffffffffffffffffffffffffffffffffffff16021790555060c0820151816004015560e08201518160050160006101000a81548160ff0219169083151502179055506101008201518160050160016101000a81548160ff0219169083151502179055505050600060016099805490506122b59190614840565b905033609d600083815260200190815260200160002060006101000a81548173ffffffffffffffffffffffffffffffffffffffff021916908373ffffffffffffffffffffffffffffffffffffffff1602179055506000848361231791906147fe565b9050612345609760009054906101000a900473ffffffffffffffffffffffffffffffffffffffff16826137f0565b8373ffffffffffffffffffffffffffffffffffffffff1681837f2890e79a75f78393834e5d3add0322b03d1e83f522589f7d1aef77737969931a8660405161238d9190613ff0565b60405180910390a45050505050565b80609d600082815260200190815260200160002060009054906101000a900473ffffffffffffffffffffffffffffffffffffffff1673ffffffffffffffffffffffffffffffffffffffff163373ffffffffffffffffffffffffffffffffffffffff161461243e576040517f08c379a000000000000000000000000000000000000000000000000000000000815260040161243590614999565b60405180910390fd5b81600080600881111561245457612453613eef565b5b60998381548110612468576124676142c2565b5b906000526020600020906006020160030160009054906101000a900460ff16600881111561249957612498613eef565b5b146124d9576040517f08c379a00000000000000000000000000000000000000000000000000000000081526004016124d0906143ba565b60405180910390fd5b6124e1610af2565b15612521576040517f08c379a000000000000000000000000000000000000000000000000000000000815260040161251890614426565b60405180910390fd5b600660998581548110612537576125366142c2565b5b906000526020600020906006020160030160006101000a81548160ff0219169083600881111561256a57612569613eef565b5b02179055508360998581548110612584576125836142c2565b5b906000526020600020906006020160010160009054906101000a900473ffffffffffffffffffffffffffffffffffffffff1673ffffffffffffffffffffffffffffffffffffffff167f433bc606d387f357fb51115d313c12ec28afbc12369ff3447943bf8a98cd2fbc60405160405180910390a350505050565b6126066126ca565b600073ffffffffffffffffffffffffffffffffffffffff168173ffffffffffffffffffffffffffffffffffffffff1603612675576040517f08c379a000000000000000000000000000000000000000000000000000000000815260040161266c90614abd565b60405180910390fd5b61267e8161306e565b50565b6000609a60008373ffffffffffffffffffffffffffffffffffffffff1673ffffffffffffffffffffffffffffffffffffffff168152602001908152602001600020549050919050565b6126d2613ac9565b73ffffffffffffffffffffffffffffffffffffffff166126f0611964565b73ffffffffffffffffffffffffffffffffffffffff1614612746576040517f08c379a000000000000000000000000000000000000000000000000000000000815260040161273d90614b29565b60405180910390fd5b565b612750613ad1565b6000603360006101000a81548160ff0219169083151502179055507f5db9ee0a495bf2e6ff9c91a7834c1ba4fdd244a5e8aa4e537bd38aeae4b073aa612794613ac9565b6040516127a191906141bb565b60405180910390a1565b6000808273ffffffffffffffffffffffffffffffffffffffff163b119050919050565b600060019054906101000a900460ff1661281d576040517f08c379a000000000000000000000000000000000000000000000000000000000815260040161281490614bbb565b60405180910390fd5b612825613b1a565b565b61282f6126ca565b80600680600881111561284557612844613eef565b5b60998381548110612859576128586142c2565b5b906000526020600020906006020160030160009054906101000a900460ff16600881111561288a57612889613eef565b5b146128ca576040517f08c379a00000000000000000000000000000000000000000000000000000000081526004016128c1906143ba565b60405180910390fd5b6000609984815481106128e0576128df6142c2565b5b90600052602060002090600602016000015460998581548110612906576129056142c2565b5b90600052602060002090600602016002015461292291906147fe565b90506000609d600086815260200190815260200160002060009054906101000a900473ffffffffffffffffffffffffffffffffffffffff16905081609a60008373ffffffffffffffffffffffffffffffffffffffff1673ffffffffffffffffffffffffffffffffffffffff1681526020019081526020016000205410156129de576040517f08c379a00000000000000000000000000000000000000000000000000000000081526004016129d590614c27565b60405180910390fd5b609860009054906101000a900473ffffffffffffffffffffffffffffffffffffffff1673ffffffffffffffffffffffffffffffffffffffff16632e1a7d4d609b60008473ffffffffffffffffffffffffffffffffffffffff1673ffffffffffffffffffffffffffffffffffffffff168152602001908152602001600020546040518263ffffffff1660e01b8152600401612a789190613ff0565b6020604051808303816000875af1158015612a97573d6000803e3d6000fd5b505050506040513d601f19601f82011682018060405250810190612abb919061455a565b612afa576040517f08c379a0000000000000000000000000000000000000000000000000000000008152600401612af1906145f9565b60405180910390fd5b81609a60008373ffffffffffffffffffffffffffffffffffffffff1673ffffffffffffffffffffffffffffffffffffffff16815260200190815260200160002054612b459190614840565b609a60008373ffffffffffffffffffffffffffffffffffffffff1673ffffffffffffffffffffffffffffffffffffffff16815260200190815260200160002081905550600560998681548110612b9e57612b9d6142c2565b5b906000526020600020906006020160030160006101000a81548160ff02191690836008811115612bd157612bd0613eef565b5b0217905550612c238183609760009054906101000a900473ffffffffffffffffffffffffffffffffffffffff1673ffffffffffffffffffffffffffffffffffffffff16612fe89092919063ffffffff16565b8460998681548110612c3857612c376142c2565b5b906000526020600020906006020160010160009054906101000a900473ffffffffffffffffffffffffffffffffffffffff1673ffffffffffffffffffffffffffffffffffffffff167f8baeed34b5c03a5dc041dcd4442531b1355d3a3226a3025d029d01f5ca09bf1660405160405180910390a35050505050565b60026008811115612cc757612cc6613eef565b5b60998281548110612cdb57612cda6142c2565b5b906000526020600020906006020160030160009054906101000a900460ff166008811115612d0c57612d0b613eef565b5b1480612d6e575060016008811115612d2757612d26613eef565b5b60998281548110612d3b57612d3a6142c2565b5b906000526020600020906006020160030160009054906101000a900460ff166008811115612d6c57612d6b613eef565b5b145b612dad576040517f08c379a0000000000000000000000000000000000000000000000000000000008152600401612da490614cb9565b60405180910390fd5b600760998281548110612dc357612dc26142c2565b5b906000526020600020906006020160030160006101000a81548160ff02191690836008811115612df657612df5613eef565b5b0217905550612e0481613197565b50565b60006008811115612e1b57612e1a613eef565b5b60998281548110612e2f57612e2e6142c2565b5b906000526020600020906006020160030160009054906101000a900460ff166008811115612e6057612e5f613eef565b5b14612ea0576040517f08c379a0000000000000000000000000000000000000000000000000000000008152600401612e9790614d4b565b60405180910390fd5b600660998281548110612eb657612eb56142c2565b5b906000526020600020906006020160030160006101000a81548160ff02191690836008811115612ee957612ee8613eef565b5b0217905550612ef781612827565b50565b806002806008811115612f1057612f0f613eef565b5b60998381548110612f2457612f236142c2565b5b906000526020600020906006020160030160009054906101000a900460ff166008811115612f5557612f54613eef565b5b14612f95576040517f08c379a0000000000000000000000000000000000000000000000000000000008152600401612f8c906143ba565b60405180910390fd5b600160998481548110612fab57612faa6142c2565b5b906000526020600020906006020160030160006101000a81548160ff02191690836008811115612fde57612fdd613eef565b5b0217905550505050565b6130698363a9059cbb60e01b8484604051602401613007929190614d6b565b604051602081830303815290604052907bffffffffffffffffffffffffffffffffffffffffffffffffffffffff19166020820180517bffffffffffffffffffffffffffffffffffffffffffffffffffffffff8381831617835250505050613b7b565b505050565b6000606560009054906101000a900473ffffffffffffffffffffffffffffffffffffffff16905081606560006101000a81548173ffffffffffffffffffffffffffffffffffffffff021916908373ffffffffffffffffffffffffffffffffffffffff1602179055508173ffffffffffffffffffffffffffffffffffffffff168173ffffffffffffffffffffffffffffffffffffffff167f8be0079c531659141344cd1fd0a4f28419497f9722a3daafe3b4186f6b6457e060405160405180910390a35050565b61313c613c43565b6001603360006101000a81548160ff0219169083151502179055507f62e78cea01bee320cd4e420270b5ea74000d11b0c9f74754ebdbfc544b05a258613180613ac9565b60405161318d91906141bb565b60405180910390a1565b61319f6126ca565b8060078060088111156131b5576131b4613eef565b5b609983815481106131c9576131c86142c2565b5b906000526020600020906006020160030160009054906101000a900460ff1660088111156131fa576131f9613eef565b5b1461323a576040517f08c379a0000000000000000000000000000000000000000000000000000000008152600401613231906143ba565b60405180910390fd5b6099838154811061324e5761324d6142c2565b5b906000526020600020906006020160040154609c600060998681548110613278576132776142c2565b5b906000526020600020906006020160030160029054906101000a900473ffffffffffffffffffffffffffffffffffffffff1673ffffffffffffffffffffffffffffffffffffffff1673ffffffffffffffffffffffffffffffffffffffff168152602001908152602001600020541015613326576040517f08c379a000000000000000000000000000000000000000000000000000000000815260040161331d9061471d565b60405180910390fd5b3073ffffffffffffffffffffffffffffffffffffffff1660998481548110613351576133506142c2565b5b906000526020600020906006020160030160029054906101000a900473ffffffffffffffffffffffffffffffffffffffff1673ffffffffffffffffffffffffffffffffffffffff16036133d9576040517f08c379a00000000000000000000000000000000000000000000000000000000081526004016133d090614de0565b60405180910390fd5b609983815481106133ed576133ec6142c2565b5b906000526020600020906006020160040154609c600060998681548110613417576134166142c2565b5b906000526020600020906006020160030160029054906101000a900473ffffffffffffffffffffffffffffffffffffffff1673ffffffffffffffffffffffffffffffffffffffff1673ffffffffffffffffffffffffffffffffffffffff1681526020019081526020016000205461348e9190614840565b609c6000609986815481106134a6576134a56142c2565b5b906000526020600020906006020160030160029054906101000a900473ffffffffffffffffffffffffffffffffffffffff1673ffffffffffffffffffffffffffffffffffffffff1673ffffffffffffffffffffffffffffffffffffffff1681526020019081526020016000208190555060006099848154811061352c5761352b6142c2565b5b906000526020600020906006020160030160006101000a81548160ff0219169083600881111561355f5761355e613eef565b5b021790555060006099848154811061357a576135796142c2565b5b906000526020600020906006020160030160029054906101000a900473ffffffffffffffffffffffffffffffffffffffff16905030609985815481106135c3576135c26142c2565b5b906000526020600020906006020160030160026101000a81548173ffffffffffffffffffffffffffffffffffffffff021916908373ffffffffffffffffffffffffffffffffffffffff160217905550600060998581548110613628576136276142c2565b5b9060005260206000209060060201600401549050600060998681548110613652576136516142c2565b5b9060005260206000209060060201600401819055506136d78282609988815481106136805761367f6142c2565b5b906000526020600020906006020160010160009054906101000a900473ffffffffffffffffffffffffffffffffffffffff1673ffffffffffffffffffffffffffffffffffffffff16612fe89092919063ffffffff16565b84609986815481106136ec576136eb6142c2565b5b906000526020600020906006020160010160009054906101000a900473ffffffffffffffffffffffffffffffffffffffff1673ffffffffffffffffffffffffffffffffffffffff167f088dd488d38f22b4d7e4ebda8ceec55ae47581abf41cc7624164071ac4a9e88060405160405180910390a35050505050565b6137ea846323b872dd60e01b85858560405160240161378893929190614e00565b604051602081830303815290604052907bffffffffffffffffffffffffffffffffffffffffffffffffffffffff19166020820180517bffffffffffffffffffffffffffffffffffffffffffffffffffffffff8381831617835250505050613b7b565b50505050565b6137f8610af2565b15613838576040517f08c379a000000000000000000000000000000000000000000000000000000000815260040161382f90614426565b60405180910390fd5b6138653330838573ffffffffffffffffffffffffffffffffffffffff16613767909392919063ffffffff16565b8173ffffffffffffffffffffffffffffffffffffffff1663095ea7b3609860009054906101000a900473ffffffffffffffffffffffffffffffffffffffff16836040518363ffffffff1660e01b81526004016138c2929190614d6b565b6020604051808303816000875af11580156138e1573d6000803e3d6000fd5b505050506040513d601f19601f82011682018060405250810190613905919061455a565b506000609860009054906101000a900473ffffffffffffffffffffffffffffffffffffffff1673ffffffffffffffffffffffffffffffffffffffff1663b6b55f25836040518263ffffffff1660e01b81526004016139639190613ff0565b6020604051808303816000875af1158015613982573d6000803e3d6000fd5b505050506040513d601f19601f820116820180604052508101906139a69190614e4c565b905081609a60003373ffffffffffffffffffffffffffffffffffffffff1673ffffffffffffffffffffffffffffffffffffffff168152602001908152602001600020546139f391906148d4565b609a60003373ffffffffffffffffffffffffffffffffffffffff1673ffffffffffffffffffffffffffffffffffffffff1681526020019081526020016000208190555080609b60003373ffffffffffffffffffffffffffffffffffffffff1673ffffffffffffffffffffffffffffffffffffffff16815260200190815260200160002054613a8191906148d4565b609b60003373ffffffffffffffffffffffffffffffffffffffff1673ffffffffffffffffffffffffffffffffffffffff16815260200190815260200160002081905550505050565b600033905090565b613ad9610af2565b613b18576040517f08c379a0000000000000000000000000000000000000000000000000000000008152600401613b0f90614ec5565b60405180910390fd5b565b600060019054906101000a900460ff16613b69576040517f08c379a0000000000000000000000000000000000000000000000000000000008152600401613b6090614bbb565b60405180910390fd5b613b79613b74613ac9565b61306e565b565b6000613bdd826040518060400160405280602081526020017f5361666545524332303a206c6f772d6c6576656c2063616c6c206661696c65648152508573ffffffffffffffffffffffffffffffffffffffff16613c8d9092919063ffffffff16565b9050600081511480613bff575080806020019051810190613bfe919061455a565b5b613c3e576040517f08c379a0000000000000000000000000000000000000000000000000000000008152600401613c3590614f57565b60405180910390fd5b505050565b613c4b610af2565b15613c8b576040517f08c379a0000000000000000000000000000000000000000000000000000000008152600401613c8290614fc3565b60405180910390fd5b565b6060613c9c8484600085613ca5565b90509392505050565b606082471015613cea576040517f08c379a0000000000000000000000000000000000000000000000000000000008152600401613ce190615055565b60405180910390fd5b6000808673ffffffffffffffffffffffffffffffffffffffff168587604051613d1391906150e6565b60006040518083038185875af1925050503d8060008114613d50576040519150601f19603f3d011682016040523d82523d6000602084013e613d55565b606091505b5091509150613d6687838387613d72565b92505050949350505050565b60608315613dd4576000835103613dcc57613d8c856127ab565b613dcb576040517f08c379a0000000000000000000000000000000000000000000000000000000008152600401613dc290615149565b60405180910390fd5b5b829050613ddf565b613dde8383613de7565b5b949350505050565b600082511115613dfa5781518083602001fd5b806040517f08c379a0000000000000000000000000000000000000000000000000000000008152600401613e2e91906151be565b60405180910390fd5b600080fd5b6000819050919050565b613e4f81613e3c565b8114613e5a57600080fd5b50565b600081359050613e6c81613e46565b92915050565b600060208284031215613e8857613e87613e37565b5b6000613e9684828501613e5d565b91505092915050565b613ea881613e3c565b82525050565b600073ffffffffffffffffffffffffffffffffffffffff82169050919050565b6000613ed982613eae565b9050919050565b613ee981613ece565b82525050565b7f4e487b7100000000000000000000000000000000000000000000000000000000600052602160045260246000fd5b60098110613f2f57613f2e613eef565b5b50565b6000819050613f4082613f1e565b919050565b6000613f5082613f32565b9050919050565b613f6081613f45565b82525050565b60008115159050919050565b613f7b81613f66565b82525050565b600060e082019050613f96600083018a613e9f565b613fa36020830189613ee0565b613fb06040830188613f57565b613fbd6060830187613e9f565b613fca6080830186613f72565b613fd760a0830185613ee0565b613fe460c0830184613e9f565b98975050505050505050565b60006020820190506140056000830184613e9f565b92915050565b600061401682613ece565b9050919050565b6140268161400b565b811461403157600080fd5b50565b6000813590506140438161401d565b92915050565b600061405482613ece565b9050919050565b61406481614049565b811461406f57600080fd5b50565b6000813590506140818161405b565b92915050565b6000806040838503121561409e5761409d613e37565b5b60006140ac85828601614034565b92505060206140bd85828601614072565b9150509250929050565b600080604083850312156140de576140dd613e37565b5b60006140ec85828601613e5d565b92505060206140fd85828601613e5d565b9150509250929050565b600060208201905061411c6000830184613f72565b92915050565b60006020828403121561413857614137613e37565b5b600061414684828501614034565b91505092915050565b61415881613f66565b811461416357600080fd5b50565b6000813590506141758161414f565b92915050565b6000806040838503121561419257614191613e37565b5b60006141a085828601613e5d565b92505060206141b185828601614166565b9150509250929050565b60006020820190506141d06000830184613ee0565b92915050565b6141df81613ece565b81146141ea57600080fd5b50565b6000813590506141fc816141d6565b92915050565b6000806040838503121561421957614218613e37565b5b600061422785828601613e5d565b9250506020614238858286016141ed565b9150509250929050565b60006020828403121561425857614257613e37565b5b6000614266848285016141ed565b91505092915050565b60008060006060848603121561428857614287613e37565b5b600061429686828701613e5d565b93505060206142a7868287016141ed565b92505060406142b886828701613e5d565b9150509250925092565b7f4e487b7100000000000000000000000000000000000000000000000000000000600052603260045260246000fd5b600082825260208201905092915050565b7f544f4b3a20796f7520617265206e6f7420546f6b656e206f776e657200000000600082015250565b6000614338601c836142f1565b915061434382614302565b602082019050919050565b600060208201905081810360008301526143678161432b565b9050919050565b7f544f4b3a207374617465206572726f7200000000000000000000000000000000600082015250565b60006143a46010836142f1565b91506143af8261436e565b602082019050919050565b600060208201905081810360008301526143d381614397565b9050919050565b7f544f4b3a20636f6e7472616374207768696c6520706175736564000000000000600082015250565b6000614410601a836142f1565b915061441b826143da565b602082019050919050565b6000602082019050818103600083015261443f81614403565b9050919050565b7f496e697469616c697a61626c653a20636f6e747261637420697320616c72656160008201527f647920696e697469616c697a6564000000000000000000000000000000000000602082015250565b60006144a2602e836142f1565b91506144ad82614446565b604082019050919050565b600060208201905081810360008301526144d181614495565b9050919050565b6000819050919050565b600060ff82169050919050565b6000819050919050565b600061451461450f61450a846144d8565b6144ef565b6144e2565b9050919050565b614524816144f9565b82525050565b600060208201905061453f600083018461451b565b92915050565b6000815190506145548161414f565b92915050565b6000602082840312156145705761456f613e37565b5b600061457e84828501614545565b91505092915050565b7f544f4b3a205661756c742063616e6e6f7420636f766572207472616e7361637460008201527f696f6e0000000000000000000000000000000000000000000000000000000000602082015250565b60006145e36023836142f1565b91506145ee82614587565b604082019050919050565b60006020820190508181036000830152614612816145d6565b9050919050565b7f544f4b3a20696e73756666696369656e7420537461626c65436f696e2062616c60008201527f616e636500000000000000000000000000000000000000000000000000000000602082015250565b60006146756024836142f1565b915061468082614619565b604082019050919050565b600060208201905081810360008301526146a481614668565b9050919050565b7f544f4b3a20696e73756666696369656e7420457175697479546f6b656e20616d60008201527f6f756e7400000000000000000000000000000000000000000000000000000000602082015250565b60006147076024836142f1565b9150614712826146ab565b604082019050919050565b60006020820190508181036000830152614736816146fa565b9050919050565b7f496e73756666696369656e7420457175697479546f6b656e20616d6f756e742060008201527f696e206f72646572000000000000000000000000000000000000000000000000602082015250565b60006147996028836142f1565b91506147a48261473d565b604082019050919050565b600060208201905081810360008301526147c88161478c565b9050919050565b7f4e487b7100000000000000000000000000000000000000000000000000000000600052601160045260246000fd5b600061480982613e3c565b915061481483613e3c565b925082820261482281613e3c565b91508282048414831517614839576148386147cf565b5b5092915050565b600061484b82613e3c565b915061485683613e3c565b925082820390508181111561486e5761486d6147cf565b5b92915050565b7f4e487b7100000000000000000000000000000000000000000000000000000000600052601260045260246000fd5b60006148ae82613e3c565b91506148b983613e3c565b9250826148c9576148c8614874565b5b828204905092915050565b60006148df82613e3c565b91506148ea83613e3c565b9250828201905080821115614902576149016147cf565b5b92915050565b600060808201905061491d6000830187613ee0565b61492a6020830186613f72565b6149376040830185613e9f565b6149446060830184613e9f565b95945050505050565b7f544f4b3a20796f7520617265206e6f74204f72646572206f776e657200000000600082015250565b6000614983601c836142f1565b915061498e8261494d565b602082019050919050565b600060208201905081810360008301526149b281614976565b9050919050565b7f544f4b3a20457175697479546f6b656e2062616c616e63652063616e206e6f7460008201527f20626520626967676572207468616e206f7264657220616d6f756e7400000000602082015250565b6000614a15603c836142f1565b9150614a20826149b9565b604082019050919050565b60006020820190508181036000830152614a4481614a08565b9050919050565b7f4f776e61626c653a206e6577206f776e657220697320746865207a65726f206160008201527f6464726573730000000000000000000000000000000000000000000000000000602082015250565b6000614aa76026836142f1565b9150614ab282614a4b565b604082019050919050565b60006020820190508181036000830152614ad681614a9a565b9050919050565b7f4f776e61626c653a2063616c6c6572206973206e6f7420746865206f776e6572600082015250565b6000614b136020836142f1565b9150614b1e82614add565b602082019050919050565b60006020820190508181036000830152614b4281614b06565b9050919050565b7f496e697469616c697a61626c653a20636f6e7472616374206973206e6f74206960008201527f6e697469616c697a696e67000000000000000000000000000000000000000000602082015250565b6000614ba5602b836142f1565b9150614bb082614b49565b604082019050919050565b60006020820190508181036000830152614bd481614b98565b9050919050565b7f544f4b3a20696e73756666696369656e742062616c616e636500000000000000600082015250565b6000614c116019836142f1565b9150614c1c82614bdb565b602082019050919050565b60006020820190508181036000830152614c4081614c04565b9050919050565b7f544f4b3a206f72646572206973206e6f7420696e2050707261417070726f766560008201527f64206f72204f776e6572417070726f7665642073746174650000000000000000602082015250565b6000614ca36038836142f1565b9150614cae82614c47565b604082019050919050565b60006020820190508181036000830152614cd281614c96565b9050919050565b7f544f4b3a206f72646572206973206e6f7420696e20437265617465642073746160008201527f7465000000000000000000000000000000000000000000000000000000000000602082015250565b6000614d356022836142f1565b9150614d4082614cd9565b604082019050919050565b60006020820190508181036000830152614d6481614d28565b9050919050565b6000604082019050614d806000830185613ee0565b614d8d6020830184613e9f565b9392505050565b7f544f4b3a20636f6e7461726374206973206120746f6b656e206f776e65720000600082015250565b6000614dca601e836142f1565b9150614dd582614d94565b602082019050919050565b60006020820190508181036000830152614df981614dbd565b9050919050565b6000606082019050614e156000830186613ee0565b614e226020830185613ee0565b614e2f6040830184613e9f565b949350505050565b600081519050614e4681613e46565b92915050565b600060208284031215614e6257614e61613e37565b5b6000614e7084828501614e37565b91505092915050565b7f5061757361626c653a206e6f7420706175736564000000000000000000000000600082015250565b6000614eaf6014836142f1565b9150614eba82614e79565b602082019050919050565b60006020820190508181036000830152614ede81614ea2565b9050919050565b7f5361666545524332303a204552433230206f7065726174696f6e20646964206e60008201527f6f74207375636365656400000000000000000000000000000000000000000000602082015250565b6000614f41602a836142f1565b9150614f4c82614ee5565b604082019050919050565b60006020820190508181036000830152614f7081614f34565b9050919050565b7f5061757361626c653a2070617573656400000000000000000000000000000000600082015250565b6000614fad6010836142f1565b9150614fb882614f77565b602082019050919050565b60006020820190508181036000830152614fdc81614fa0565b9050919050565b7f416464726573733a20696e73756666696369656e742062616c616e636520666f60008201527f722063616c6c0000000000000000000000000000000000000000000000000000602082015250565b600061503f6026836142f1565b915061504a82614fe3565b604082019050919050565b6000602082019050818103600083015261506e81615032565b9050919050565b600081519050919050565b600081905092915050565b60005b838110156150a957808201518184015260208101905061508e565b60008484015250505050565b60006150c082615075565b6150ca8185615080565b93506150da81856020860161508b565b80840191505092915050565b60006150f282846150b5565b915081905092915050565b7f416464726573733a2063616c6c20746f206e6f6e2d636f6e7472616374000000600082015250565b6000615133601d836142f1565b915061513e826150fd565b602082019050919050565b6000602082019050818103600083015261516281615126565b9050919050565b600081519050919050565b6000601f19601f8301169050919050565b600061519082615169565b61519a81856142f1565b93506151aa81856020860161508b565b6151b381615174565b840191505092915050565b600060208201905081810360008301526151d88184615185565b90509291505056fea264697066735822122091292cf79c3b7cddad14c6f3ca0b53245fa758e280a390ccf6c27edf6612e16064736f6c63430008120033",
  "linkReferences": {},
  "deployedLinkReferences": {}
}